:101394005351522E525428256429203D20252E32A3
:0213A4006600E1
:10137B00E4FEEEC39F5011E4FDFC0DBD00010CBC5F
:08138B0004F8BDFBF50E80EA39
:011393002237
:10135F00BD0104C2A08005BD0202D2A0C2A1D2A2CB
:0C136F008FB0C2A27F0A12137BD2A22210
:0612E8008B568A5789585D
:1012EE00E4F559F55AAB56AA57A958855A8285592D
:1012FE0083120CE1FF600F7D0212135F055AE55A4F
:06130E0070E3055980DFC9
:0113140022B6
:10133C007D017F3812135F7D017F0F12135F7D01DA
:10134C007F0612135F7D017F0112135F7D017F8089
:03135C0002135F1A
:10127D00E4F5B0C2A0C2A1C2A212133CE4F522F55E
:10128D0023AC22AD23E41208051211D78F618E60B5
:10129D008D5F8C5E7559FF755A13755B9485225C55
:1012AD0085235D7B007A007924120DC07B007A00C6
:1012BD0079241212E87F6412137B7D017F011213D2
:1012CD005F7D017F8012135F0523E52370020522E8
:0B12DD00D3940AE522940040A880FE94
:1008000075F020800E75F010800575F0087D007E73
:10081000007F003392D530D503120D20EC33401009
:10082000EF33FFEE33FEED33FDEC33FCD5F0ED227C
:0E083000E5F0247EA2D513CC92E7CDCEFF22B8
:100D6400E56D2459F8E6056D227856300702785966
:100D7400E475F001120D2E020CC82000EB7F2ED278
:100D8400008018EF540F2490D43440D4FF30040B67
:100D9400EF24BFB41A0050032461FFE56E6002150E
:100DA4006E0571E5717002057030070D7856E475B3
:100DB400F001120D2EEF020D0E0213157403D2076B
:100DC4008003E4C207F56D8B568A578958E4F56EA3
:100DD400F570F571E56E60077F20120D9F80F57543
:100DE4006FFFC201C200C202C203C205C206C2082A
:100DF400120D6DFF700D3007057F00120DB0AF713D
:100E0400AE7022B4255FC2D5C204120D6DFF24D08A
:100E1400B40A00501A75F00A786E30D50508B6FF8A
:100E24000106C6A426F620D5047002D20380D92474
:100E3400CFB41A00EF5004C2E5D20402109DD201CF
:100E440080C6D20080C0D20280BCD2D580BAD2057E
:100E540080B47F20120D9F2002077401B56E0040FC
:100E6400F1120D64FF120D9F020DD8D208D2068034
:100E740095120D64FB120D64FA120D64F94A4B705D
:100E84000679947A117BFF20022EE56E602A7E009B
:100E94008E82758300120CE160060EEE656F70F0B1
:100EA400C2D5EBC0E0EAC0E0E9C0E0EE1210FDD02C
:100EB400E0F9D0E0FAD0E0FB120CC8FF60AAEBC066
:100EC400E0EAC0E0E9C0E0120D9FD0E02401F9D0CF
:100ED400E03400FAD0E0FBE56F0460DCD56FD98024
:100EE40087D20280A21210E060F7E56F700104124D
:100EF4000A20A96F600DE56F600914F56F12118760
:100F0400EF60F3EA30E702F404C3995077EAF4257A
:100F14006F0430E701E404F56F800D1210E060C146
:100F2400EA056F256F120A20EA786CF630E701E4CF
:100F3400256F04D56F04200501141210FDE4C0E0F0
:100F4400121187786CE6601320E70714F6120D87F8
:100F5400802204F6D0E014C0E07F00120D87E56F14
:100F64006007120D7E156F800B300503120D7ED0C5
:100F7400E0020DD8D0E00480C51210E060A0E56F57
:100F840004120A20786CEAF6E56F20050260010479
:050F940024041210FD11
:100F990074FF04C0E0121187120D87E56F20050266
:100FA9006003120D7ED0E0B56FE87F45120D917890
:100FB9006CE67F2B30E7047F2DF404C0E0120D9F0F
:100FC900D0E075F00A84C0F0120D88D0E0120D88C7
:100FD900020DD8791080027908C206C2088008D2A9
:100FE900D5790A8004790AC2D5E56F047002F56FD4
:100FF900E4FAFDFEFF120D64FC7B08200113120DBB
:1010090064FD7B1030000A120D64FE120D64FF7B33
:1010190020EC3382D592D55013C3E43000069FFFEC
:10102900E49EFEE42001039DFDE49CFCE4CBF8C2B0
:1010390001EC700CCFCECDCCE824F8F870F3801712
:10104900C3EF33FFEE33FEED33FDEC33FCEB33FB43
:10105900994002FB0FD8E9EB300105F8D0E0C4480C
:10106900B201C0E00AEC4D4E4F78207B0070C2EA15
:10107900B56F0040BCC0E01210FFD0F0D0E02001F5
:1010890004C4C0E0C4B201C0F0120D88D0F0D5F09C
:10109900EB020DD8120D3E0E75530FDC580E464C5F
:1010A9000E42420FE04F0FE8440FE8490E5B430F31
:1010B900EE550F1F460F7D450EE94711B4500E4AF4
:1010C9002D0E4E2E0E712B0E52230E6F20119D2ABE
:1010D9000E0A4800000E69E56FB4FF03756F06122A
:1010E9000D64FC120D64FD120D64FE120D64FF788F
:1010F90065020A4F790AA2D5200314300509B910EF
:10110900020404B9080104A2D520060250010420F2
:1011190002689202B56E005034C0E07F2030031996
:101129007F30A20272067205500F121156C202C216
:1011390006C205C2087F30800F300503E9C0E012FE
:101149000D9F300503D0E0F9D0E0B56ECC3005171E
:101159007F30B9100C120D9F7F583004077F7880BB
:1011690003B90803120D9F3002057F2D020D9F7FE1
:10117900202008F87F2B2006F322920280CF7F00DF
:10118900B4070050052465F8E6FF22286E756C6CDB
:101199002900D201120D643001F8C201786E30D5F0
:1011A9000108F6020E0A2D50434958120D64240312
:1011B900B405004001E49011AF93120D90743A12F6
:0A11C9000D90D203756E04020FDCD6
:1011D30002087322EDA2E7D2E7F9EC3340F260F3A1
:1011E300B4FF08ED547F70E802087DF82481C2E063
:1011F300C0E0F40428FAC313FCED92E7FD8C568D8E
:10120300578E588F59EEA2E7E9BA7F02C313340011
:101213009400FA75F091A4E5F013F494FE8AF0A417
:1012230033E5F033248CD313FDE492E7FE7F007C97
:101233003F758302ECC0E0F8EDC0E0F9EEC0E0FAE0
:10124300EFC0E0FBAC56AD57AE58AF59120983D08F
:10125300E0FBD0E0FAD0E0F9D0E0F812088FED64BB
:1012630080FD30E7011CD583CBED33CC33F8D0E0E0
:0A127300A2E71328C313CC13FD22D9
:10083E00E9D2E7C933E833F892D5EDD2E7CD33EC00
:07084E0033FC5002B2D52279
:10085500EC30E7100FBF000C0EBE00080DBD000404
:100865000BEB6014A2D5EB13FCED92E7FD2274FFB0
:10087500FCFDFEFF22E480F8A2D574FF13FC7D8009
:03088500E480EF1D
:10088800020873E86480F8E933E83360110460F023
:10089800ED33EC337009E8FCE9FDEAFEEBFF2204D6
:1008A80060DED3EB9FEA9EE99DE8C2E78CF0C2F7D1
:1008B80095F0400CE8CCF8E9CDF9EACEFAEBCFFB9D
:1008C80012083E85D0F05804700320D5B3E80470B0
:1008D800075002B2D502087D92D5EC0460F7E4CC4B
:1008E800C0E0C398F8603B94186008400DD0E0FB66
:1008F800020855E4FBFAC9FC8028E830E406E4C99C
:10090800FBE4CAFCE830E305E4C9CACBFCE85407B9
:100918006010F8C3E913F9EA13FAEB13FBEC13FCC4
:10092800D8F130F52FC3E49CFCEF9BFFEE9AFEED67
:1009380099FDD0E0FBEF4E4D4C701222DB0302080C
:100948007AEC2CFCEF33FFEE33FEED33FDED30E7B0
:10095800EB020855EF2BFFEE3AFEED39FDD0E0FB38
:1009680050130BBB000302087DED13FDEE13FEEFE1
:0809780013FFEC13FC0208550B
:1009800002087DEC5D046005E859047003020873F9
:1009900012083E580460F6EC4860F2EC7004FDFE6C
:1009A000FF22C860DB2481C85009C398600250064A
:1009B00002087A9850CAF582E9294B4A7005AB8241
:1009C00002086975F0007C1A7880C3EF9BEE9AEDFF
:1009D00099400DC3EF9BFFEE9AFEED99FDE842F0C2
:1009E000DC23ACF0D0E0FFD0E0FED0E0FDAB822015
:1009F000E7101BEB60BAEC2CFCEF33FFEE33FEED9F
:100A000033FD020855E803F830E705C0F075F00043
:100A1000EF2FFFEE33FEED33FD40B830E7C280AA82
:100A2000F920E72824F950037907E4F42402FB189D
:100A3000DBFDE624FB5014E9600DE4F618E604F64D
:0F0A4000B40A08E4F6D9F57401F60A22C2D522E9
:100A4F00ED33EC3392D5FA602AB4FF33EDC2E77B76
:100A5F00FF60067A0A7974E4227A0A797D20D50438
:100A6F007A0A7978224E614E002B494E46002D4965
:100A7F004E4600E47A08F608DAFC7B00740722E899
:100A8F00C0E0ECC0E0EDC0E0EEC0E0EFC0E0EA7522
:100A9F00F010A4CAABF075F04DA42BFBE435F0FCBD
:100AAF00EA2410FAEB34C5FBEC34D9FCEDC2E7FFB6
:100ABF0075F056A4F42411C5F0F434C58FF0A42AB0
:100ACF00E5F03BE43CF620E714120C88D0E0FFD0B1
:100ADF00E0FED0E0FDD0E0FC1209838014F4041294
:100AEF000C88D0E0FFD0E0FED0E0FDD0E0FC120B90
:100AFF0052D0E0F8E6FAEDD2E7CD33EC332482FBA7
:100B0F00E4C3CF33CFCE33CECD33CD33DBF37B073F
:100B1F0075F00A846004F6081B0AE5F0F6088FF0FA
:100B2F00740AA4FFACF08EF0740AA42CFEACF05043
:100B3F00010C8DF0740AA42CFDE435F0F608DBDE11
:030B4F0074072206
:100B5200EC4D6011E8497017ED33EC3304600DE49D
:100B6200FCFFFEFD22E933E8330470F80208731239
:100B7200083E58046009E4CC24815006285009023A
:100B8200087D28400302087AC0E0EB4A7044B9802D
:100B920006D0E0FB020869EF4E701CBD8008EBFF37
:100BA200EAFEE9FD80EBE98DF0A4FEE5F0020C3BE4
:100BB200E9CDF9EAFEEBFFEF89F0A4FCE5F0CE897E
:100BC200F0A42EFFE435F0CD89F0A42DFEE435F03B
:100BD2008067EF4E7005BD80D780C3EF8BF0A4AC69
:100BE200F0EE8BF0A42CFCE435F0F8EF8AF0A42CA4
:100BF200E5F038FCE433CB8DF0A42CFCE5F03BF8B7
:100C0200EE8AF0A42CFCE5F038F8E433CF89F0A4A6
:100C12002CFCE5F038CF3400CE89F0A42FFFE5F0AC
:100C22003EFEE433C98DF0A42EFEE5F039CD8AF004
:100C3200A42FFFE5F03EFEE43DFD33D0E0FB50077C
:100C42000BBB000F02087DEC2CFCEF33FFEE33FEF2
:060C5200ED33FD02085520
:100C58003F8000004120000042C80000447A0000A4
:100C6800461C400047C35000497424004B18968026
:100C78004CBEBC205A0E1BCA6753C21C749DC5AE1D
:100C8800FB60065407601C2323120CB6EB54386033
:100C980009120CA2120CB1120B52ECF8EDF9EEFA93
:100CA800EFCB22EB120CB180F1543803241C900CCA
:100CB80058FE93FC0EEE93FD0EEE930ECE93FF229C
:030000000213A642
:0C13A600787FE4F6D8FD75817102127D9D
:100CC800BB010689828A83E0225002E722BBFE022A
:090CD800E32289828A83E493225D
:100CE100BB010CE58229F582E5833AF583E02250C8
:100CF10006E92582F8E622BBFE06E92582F8E22212
:0D0D0100E58229F582E5833AF583E493222B
:100D0E00BB010689828A83F0225002F722BBFE01C4
:020D1E00F322BE
:0E0D2000C3E49FFFE49EFEE49DFDE49CFC22E4
:100D2E00FAE6FB0808E6F925F0F618E6CA3AF622C6
:100D3E00D083D082F8E4937012740193700DA3A344
:100D4E0093F8740193F5828883E473740293686058
:060D5E00EFA3A3A380DF58
:10131500EFB40A07740D121320740A309811A899B6
:10132500B8130CC2983098FDA899C298B811F63038
:0713350099FDC299F5992210
:00000001FF
