:100A1700E4FDFCC3ED9FEC9E5015E4FBFA0BBB0015
:0F0A2700010ABA04F8BBFBF50DBD00010C80E419
:010A3600229D
:1009C500E4F5A0E4FFFEC3EE64809481501E8FA081
:1009D5008E088F09AD07AC06EC1208FD7B667A66BA
:1009E500792A784212080712093680DAAE08AF096B
:1009F500C3EE6480948040CB8FA0AD07AC06EC12AB
:100A050008FD7B667A66792A78C2120807120936CC
:020A150080DE81
:100800000209A2E86480F8E933E83360110460F07B
:10081000ED33EC337009E8FCE9FDEAFEEBFF22045E
:1008200060DED3EB9FEA9EE99DE8C2E78CF0C2F759
:1008300095F0400CE8CCF8E9CDF9EACEFAEBCFFB25
:1008400012096D85D0F05804700320D5B3E8047008
:10085000075002B2D50209AC92D5EC0460F7E4CCA3
:10086000C0E0C398F8603B94186008400DD0E0FBEE
:10087000020984E4FBFAC9FC8028E830E406E4C9F4
:10088000FBE4CAFCE830E305E4C9CACBFCE8540742
:100890006010F8C3E913F9EA13FAEB13FBEC13FC4D
:1008A000D8F130F52FC3E49CFCEF9BFFEE9AFEEDF0
:1008B00099FDD0E0FBEF4E4D4C701222DB03020994
:1008C000A9EC2CFCEF33FFEE33FEED33FDED30E70A
:1008D000EB020984EF2BFFEE3AFEED39FDD0E0FB91
:1008E00050130BBB00030209ACED13FDEE13FEEF3A
:0808F00013FFEC13FC02098464
:1008F80075F020800E75F010800575F0087D007E7B
:10090800007F003392D530D5031209B7EC3340107D
:10091800EF33FFEE33FEED33FDEC33FCD5F0ED2283
:0E092800E5F0247EA2D513CC92E7CDCEFF22BF
:10093600EDD2E7CD33EC3392D524814006E4FFFEB9
:10094600FDFC22FCE4CFCECDCC24E0501174FF8018
:10095600EDC3CC13CCCD13CDCE13CECF13CF0470B5
:07096600F030D5DE0209B7F5
:10096D00E9D2E7C933E833F892D5EDD2E7CD33ECD0
:07097D0033FC5002B2D52249
:10098400EC30E7100FBF000C0EBE00080DBD0004D4
:100994000BEB6014A2D5EB13FCED92E7FD2274FF80
:1009A400FCFDFEFF22E480F8A2D574FF13FC7D80D9
:0309B400E480EFED
:03000000020A37BA
:0C0A3700787FE4F6D8FD7581090209C53E
:0E09B700C3E49FFFE49EFEE49DFDE49CFC2251
:00000001FF
