:1008C40010083F065B4F666D7D077F67777C395E56
:0208D400797138
:1008AB00E4FEEEC39F5011E4FDFC0DBD00010CBC3A
:0808BB0004F8BDFBF50E80EA14
:0108C3002212
:10088C00E4F5A0E4FBFA74082BF8E6F5A07F6412FB
:0F089C0008AB0BBB00010AEB64104A70E980E463
:03000000020800F3
:0C080000787FE4F6D8FD758117020847E8
:10080C0002088CE493A3F8E493A34003F68001F26E
:10081C0008DFF48029E493A3F85407240CC8C333ED
:10082C00C4540F4420C8834004F456800146F6DFBC
:10083C00E4800B01020408102040809008C4E47E80
:10084C00019360BCA3FF543F30E509541FFEE493B1
:10085C00A360010ECF54C025E060A840B8E493A378
:10086C00FAE493A3F8E493A3C8C582C8CAC583CAA3
:10087C00F0A3C8C582C8CAC583CADFE9DEE780BE5B
:0108D6000021
:00000001FF
