:0A085800C2B6D2B78FA0C2B77F0A64
:10086200E4FEEEC39F5011E4FDFC0DBD00010CBC83
:0808720004F8BDFBF50E80EA5D
:01087A00225B
:0808D200D2B5120858D2B7227A
:0808DA00C2B5120858D2B72282
:06082D008B088A09890A0C
:10083300E4F50BF50CAB08AA09A90A850C82850B14
:1008430083120800FF600D1208D2050CE50C70E559
:04085300050B80E130
:01085700227E
:10087B00E4F5A0C2B5C2B6C2B77F381208DA7F0C56
:10088B001208DA7F011208DA7F061208DA7F80027B
:02089B0008DA79
:0D08B9004144432056414C5545203D200050
:10089D0012087B7BFF7A0879B912082D7F011208A7
:0C08AD006212000012000012000080F532
:030000000208C62D
:0C08C600787FE4F6D8FD75810C02089DD7
:10080000BB010CE58229F582E5833AF583E02250AD
:1008100006E92582F8E622BBFE06E92582F8E222F7
:0D082000E58229F582E5833AF583E4932211
:00000001FF
