:060A930004080903060C33
:080A64002408F8E6F5A07F0A62
:100A6C00E4FEEEC39F5011E4FDFC0DBD00010CBC77
:080A7C0004F8BDFBF50E80EA51
:010A8400224F
:100A3000AD07AC06E41208A57B667A6679E6783FD6
:100A40001208031208DE8E0C8F0DE4FBFAC3EB953F
:100A50000DEA950C500DEB5403120A640BBB000118
:030A60000A80EA1F
:010A63002270
:1009F900AC07E41208AA7B667A6679E6783F1208A2
:100A0900031208DE8E0C8F0DE4FBFAC3EB950DEA99
:100A1900950C5012EB5403FFC374039F120A640B25
:060A2900BB00010A80E59C
:010A2F0022A4
:0E0A85007FB47E00120A307FB41209F980F2AD
:10080000020954EC5D046005E85904700302094ACA
:10081000120915580460F6EC4860F2EC7004FDFE15
:10082000FF22C860DB2481C85009C39860025006CB
:100830000209519850CAF582E9294B4A7005AB82EA
:1008400002094075F0007C1A7880C3EF9BEE9AEDA8
:1008500099400DC3EF9BFFEE9AFEED99FDE842F043
:10086000DC23ACF0D0E0FFD0E0FED0E0FDAB822096
:10087000E7101BEB60BAEC2CFCEF33FFEE33FEED20
:1008800033FD02092CE803F830E705C0F075F000ED
:10089000EF2FFFEE33FEED33FD40B830E7C280AA04
:1008A00075F020800E75F010800575F0087D007ED3
:1008B000007F003392D530D50312095FEC3340102E
:1008C000EF33FFEE33FEED33FDEC33FCD5F0ED22DC
:0E08D000E5F0247EA2D513CC92E7CDCEFF2218
:1008DE00EDD2E7CD33EC3392D524814006E4FFFE12
:1008EE00FDFC22FCE4CFCECDCC24E0501174FF8071
:1008FE00EDC3CC13CCCD13CDCE13CECF13CF04700E
:07090E00F030D5DE02095FA5
:10091500E9D2E7C933E833F892D5EDD2E7CD33EC28
:0709250033FC5002B2D522A1
:10092C00EC30E7100FBF000C0EBE00080DBD00042C
:10093C000BEB6014A2D5EB13FCED92E7FD2274FFD8
:10094C00FCFDFEFF22E480F8A2D574FF13FC7D8031
:03095C00E480EF45
:0300000002096D85
:0C096D00787FE4F6D8FD75810D0209B416
:0E095F00C3E49FFFE49EFEE49DFDE49CFC22A9
:10097900020A85E493A3F8E493A34003F68001F205
:1009890008DFF48029E493A3F85407240CC8C3337F
:10099900C4540F4420C8834004F456800146F6DF4E
:1009A900E4800B0102040810204080900A93E47E41
:1009B900019360BCA3FF543F30E509541FFEE49343
:1009C900A360010ECF54C025E060A840B8E493A30A
:1009D900FAE493A3F8E493A3C8C582C8CAC583CA35
:1009E900F0A3C8C582C8CAC583CADFE9DEE780BEED
:010A9900005C
:00000001FF
